:020000040800F2
:10000000C00700203902000841020008430200082E
:1000100045020008470200084902000800000000ED
:100020000000000000000000000000004B0200087B
:100030004D020008000000004F020008FD07000804
:10004000530200085302000853020008530200083C
:10005000530200085302000853020008530200082C
:10006000530200085302000853020008110300085D
:1000700053020008530200084503000879030008F2
:10008000AD030008530200085302000800000000FE
:100090000000000000000000000000005302000803
:1000A00053020008530200085302000853020008DC
:1000B00053020008530200085302000853020008CC
:1000C00053020008530200085302000853020008BC
:1000D00053020008A10800085302000800000000B5
:1000E00053020008530200085302000800000000F9
:1000F00000000000000000000000000053020008A3
:1001000000000000530200085302000853020008D8
:1001100000000000000000000000000000000000DF
:10012000530200085302000853020008530200085B
:100130005302000800000000000000000000000062
:100140000000000000000000000000005302000852
:10015000530200085302000853020008530200082B
:1001600053020008530200080000000000000000D5
:10017000000000000000000000000000000000007F
:100180000000000053020008000000000000000012
:10019000530200085302000800F002F800F03CF897
:1001A0000AA090E8000C82448344AAF10107DA45D2
:1001B00001D100F031F8AFF2090EBAE80F0013F0E8
:1001C000010F18BFFB1A43F001031847C8200000B5
:1001D000E8200000103A24BF78C878C1FAD8520746
:1001E00024BF30C830C144BF04680C6070470000B1
:1001F0000023002400250026103A28BF78C1FBD830
:10020000520728BF30C148BF0B6070471FB502F0CE
:100210001FF81FBD10B510BD00F044F81146FFF7E0
:10022000F5FF01F077F800F062F803B4FFF7F2FF92
:1002300003BC00F065F80000094880470948004702
:10024000FEE7FEE7FEE7FEE7FEE7FEE7FEE7FEE786
:10025000FEE7FEE704480549054A064B70470000E3
:100260000D08000899010008C0010020C007002007
:10027000C0030020C003002070477047704710B5CE
:1002800000F008F8006810BD10B5044600F002F850
:10029000046010BD00487047080000200048704707
:1002A000080000207546FFF7F9FFAE4605006946D5
:1002B000534620F00700854618B020B5FFF7CAFF67
:1002C000BDE820404FF000064FF000074FF0000857
:1002D0004FF0000BAC46ACE8C009ACE8C009ACE894
:1002E000C009ACE8C00921F007018D46704710B580
:1002F0000446AFF300802046BDE81040FFF795BFED
:1003000001491820ABBEFEE726000200704700003E
:1003100046F21000C4F2020050F8101C890658BFC3
:100320007047016821F00101016040F60C01C4F240
:1003300000010A6822F400720A60202140F8081CBB
:100340007047000046F25800C4F2020050F8581CF2
:10035000090158BF7047016821F00101016040F6B2
:100360000C01C4F200010A6822F480620A604FF0B6
:10037000006140F8501C704746F27000C4F2020061
:1003800050F86C1C890658BF7047016821F00101C4
:10039000016040F20C41C4F200010A6822F40072CC
:1003A0000A60202140F8641C7047000046F2880073
:1003B000C4F2020050F8841C090558BF7047016858
:1003C00021F00101016040F20C41C4F200010A6811
:1003D00022F480620A604FF4006140F87C1C704790
:1003E00070B543F63000C4F20200016840F20045E7
:1003F00041F0020101600169C4F2000541F006010B
:100400000161016840F60C0441F40011016040F202
:100410000040C4F202000168C4F2000421F4AA41C1
:100420000160016846F2100641F42A4101608168CA
:10043000C4F2020641F47F418160C16821F47F412A
:10044000C160016A41F0085141F408110162286855
:10045000132120F0010028600720A862E962D5F886
:10046000002422F00102C5F80024E0612162E8685E
:1004700046F6680140F4C060E860A8690843A861D6
:1004800000206863A8632A6A42F011022A62226887
:1004900042F4C0622260E2681143E160A062E0625F
:1004A000616941F0110161616862A061686940F0B1
:1004B00001006861A06840F00100A060286840F079
:1004C00081002860D5F8000440F08100C5F80004E0
:1004D000306E20F001003066306EC007FCD1B06F86
:1004E00020F00100B06700BFB06FC007FCD13068DA
:1004F00020F00100306000BF3068C007FCD1B06C54
:1005000020F00100B06400BFB06CC007FCD10F2028
:1005100000F03CFA0F2000F01DFA102000F036FA2F
:10052000102000F017FA0B2000F030FA0B2000F03A
:1005300011FA0E2000F02AFA0E2000F00BFA42F613
:100540005041306EC0F2034101F1C0621043306689
:10055000122005F134037066B36640F20C13C2F248
:100560000003F366B36F1A43B26705F13802F06710
:10057000C6F8802040F23012C2F20002C6F8842091
:1005800032680A43326004F128027060B26040F2BF
:100590005412C2F20002F260B26C1143B164F06412
:1005A00004F12C00306540F27810C2F20000706552
:1005B00070BD00002DE9F04381B00E4646F21007F1
:1005C000002198461546C4F2020701F0C1F804461E
:1005D0002846002101F0BCF8054600BF386EC00770
:1005E000FCD13046002101F0B3F806464046002118
:1005F00001F0AEF8B96FC907FCD100BF3968C9076F
:10060000FCD100BFB96CC907FCD140F20C1840F214
:10061000301940F2541C40F2781E00214FF0FF3296
:10062000C2F20008C2F20009C2F2000CC2F2000ECF
:1006300023B293424FF00E03C8BF072328F81130AE
:1006400033B293424FF00E03C8BF072329F811308D
:100650002BB293424FF00E03C8BF07232CF8113082
:1006600003B293424FF00E03C8BF07232EF8113098
:100670000131640076006D0010294FEA4000D7D1A7
:1006800000201221C8F82000C9F82000CCF8200072
:10069000CEF820007966F9677960F964396E41F027
:1006A00001013966B96F41F00101B967396841F05C
:1006B00001013960B96C41F00101B96440F20C41AB
:1006C000C4F200018861C1F81804086840F4C060F1
:1006D0000860D1F8000440F4C060C1F8000401B023
:1006E000BDE8F08343F63000C4F20200016841F037
:1006F000010101600020C4F20200016841F42941B7
:100700000160016821F4AC410160816841F47F41DE
:100710008160C16821F44071C160016A41F0A0416B
:1007200041F0AA610162704710B582B043F64400FF
:10073000C4F20200016843F2000441F48051C4F2A3
:1007400001040160FFF7CEFF206840F00300206045
:10075000206840F004002060206840F030002060F5
:10076000206820F080002060206840F44070206005
:10077000206820F44060206000206060204600F087
:1007800009F800BFA0688007FCD5E0688DF8070075
:1007900002B010BD016841F04001016070470000E7
:1007A0004FF4805283689B0704D41304A2F1010222
:1007B000F8D10AE0C1604FF4805100BF8268D207CF
:1007C00006D10A04A1F10101F8D10020C0B270479E
:1007D000C068C0B27047000010B54EF2100448F275
:1007E0009F60CEF20004C0F2010060600F2000F0B4
:1007F000C5F80020A0600720206010BD40F26C000A
:10080000C2F2000001680131016070474EF6885065
:10081000CEF20000016841F4700101604FF0006108
:1008200040F8801C7047000080B543F63000C4F2E9
:100830000200416941F010014161016841F001018C
:1008400001600020C4F20200016841F4201101603F
:10085000016821F4A0110160816841F47011816088
:10086000416A41F4EE61416241F20C00C4F20100C0
:10087000016800210160016841F4005101600168D4
:1008800021F4805101604FF4597140F8041C016853
:1008900041F02C01016000F081F800F067F880BDA4
:1008A00040F2B81C41F20000C2F2000C0021C4F278
:1008B00001008CF800100168890609D540F2DC01BE
:1008C000C2F2000142680B78D0B213B9202800D0E0
:1008D0007047012B04D140281EBF002008707047CC
:1008E0001F2B9EBF40F2BC00C2F20000C254581C35
:1008F000C2B2202A0870EBD10020087040F2BC017F
:100900004FF6FF734FF0FF32C2F2000188184078B3
:100910000132181A1D2A83B2F8D1C88B834218BF3E
:100920007047488840F29C12C2F20002108088880A
:100930005080C88890800889D08048891081888933
:100940005081C8899081088AD08101208CF80000EC
:100950007047000000F01F00012101FA00F04EF284
:100960000011CEF200010860704700004EF2041042
:10097000CEF2000020210160704700004EF62351A6
:100980000001CEF20001087070470000E421C0F2BF
:10099000E00161F31F203021017070474EF22540C5
:1009A000CEF2000020210170704700004EF60C507E
:1009B000CEF2000001684FF6FF02114041F0052120
:1009C00041F47A010160704780B54FF4FA7000F08D
:1009D000C9FA40F2FF7040F2FF7140F2FF7240F23C
:1009E000FF73FFF7E7FD4FF4FA7000F0BBFA302019
:1009F000302130223023FFF7DDFD80BD10B582B0FD
:100A000040F2780EC2F2000E40F280039EED000A22
:100A1000C2F20003B2EE0E1A93ED002A20EE010A94
:100A20008DED000A22EE010A40F29C1C8DED010AB8
:100A3000C2F2000CBCF80C0040F21A41884224BFFC
:100A40000020CDE90000BCF8041040F219408142BA
:100A500040F2B911C2F2000105D8BCF8062082426A
:100A60009CBF01200870087801283CD1BCF8040024
:100A700040F21942904236D8BCF8060040F2AB5220
:100A8000904230D30220087040F61400C4F20200F5
:100A9000026822F4C042026040F27C00C2F2000010
:100AA00040F284020068C2F200021268CEF8000030
:100AB00040F2E4001A60C2F200000022026040F23C
:100AC000F000C2F20000026040F2E000C2F200005A
:100AD000026040F2EC00C2F20000026040F2E80066
:100AE000C2F2000002600878022815D1BCF80400A8
:100AF00040F2194290420FD8BCF8060040F29F72B3
:100B0000904209D30020087040F61400C4F202009D
:100B1000016841F4C041016040F2041EC2F2000EBF
:100B20000021CEF800104FF61C24BCF80010CFF6C0
:100B3000FF74BCF8003040F2E4529142214607D8DD
:100B400040F2D3518B420AD8BCF8003004F11001B6
:100B5000194400EE101AB8EEC00A8EED000A9DEDA1
:100B6000010A9EED001A40F2001231EE401AB0EE7A
:100B7000080A81EE001AC2F200020021116040F260
:100B8000E4508EED001ABCF80210BCF8023081422D
:100B900006D840F2D350834209D8BCF80230103452
:100BA000E01801EE100AB8EEC11A82ED001A9DEDB0
:100BB000001A92ED002A40F2081132EE411A81EE3D
:100BC000001AC2F200010020086082ED001ABCF891
:100BD000040040F21B42904223D3BCF80620BCF82C
:100BE000060040F2E5539A420BD3A0F2E45001EE26
:100BF000100AB8EEC11A81EE000A81ED000A02B0B7
:100C000010BD40F2D35290420BD8BCF80600A0F2BF
:100C1000D45001EE100AB8EEC11A81EE000A81ED3F
:100C2000000A02B010BD00002DE9F04F81B040F283
:100C3000880440F29C0740F2A80640F2B40540F256
:100C40009A0840F2A40940F2B00AC2F2000400205F
:100C5000C2F20007C2F20006C2F20005C2F20008AA
:100C6000C2F20009C2F2000A40F2CF7B2060386075
:100C70003060286019E000BF00F07EFDB8F9000088
:100C8000396832680844B9F9001038605018BAF968
:100C900000102A68306050182860042000F062F9C3
:100CA0002168481C5945206018DA4BF6510145F679
:100CB0002942C0F21E51CCF28F2200FB021047F2F3
:100CC000A201C0F63D218842D6D840F61401C4F2F4
:100CD0000201086880F4C0400860CDE740F61401C6
:100CE000C4F20201086844F6D35340F4C0400860DF
:100CF0003868C1F2620350FB03F0C11101EBD071FF
:100D00003068396050FB03F0C21102EBD0722868E2
:100D1000276850FB03F0C31103EBD07304A03260CB
:100D20002B60009700F026FD01B0BDE8F08F00BFFA
:100D300025642025642025642025640A0000000025
:100D400080B543F60800C4F2020050F8081C41F4D4
:100D5000803140F8081C00BF50F8081C8903FBD5FF
:100D6000816B41F08051816347F20001C4F20001C0
:100D70000A6842F440420A60D0F8F81340F2037265
:100D80001143C0F8F81301680160016841F4805113
:100D900001600168016041F60411C0F2400140F8B1
:100DA000041C50F8081C41F0807140F8081C00BF7A
:100DB00050F8081C8901FBD5016841F0020101606F
:100DC000016801F00C010829FAD100F0FBFD80BD9B
:100DD00070B52DED088B40F29A00C2F20000B0F918
:100DE000000040F2B00600EE100A40F2A400C2F289
:100DF0000000B0F90000C2F200069FED3E8A01EE4D
:100E0000100AB6F90000B8EEC00A9FED3B9A20EE3A
:100E1000080A02EE100A80EE090AB8EEC11AB8EE0E
:100E2000C22A21EE081A22EE082A81EE091A82EE61
:100E3000092A40F27805C2F2000595ED003A40F229
:100E40008004C2F200049FED2DBA33EE000A94ED47
:100E5000003A85ED000A33EE01AA22EE0B0A84ED7A
:100E600000AA00F0B1FEB6F9000095ED002A01EEEF
:100E7000100AB8EEC11A21EE081A81EE091A2AEEFC
:100E8000000A32EE408A85ED008A21EE0B0A00F05E
:100E90009BFE94ED001A28EE000A31EE000A84ED64
:100EA000000A00F079F840F27C00C2F2000095EDF3
:100EB000000A9FED131A90ED002A9FED123A20EEE2
:100EC000010A22EE032A40F2840030EE020AC2F246
:100ED000000085ED000A94ED000A90ED002A20EE56
:100EE000010A22EE031A30EE010A84ED000ABDEC7D
:100EF000088B70BD6F12033B0000834235FA8E3CB5
:100F0000C9E57F3F17B7D139A0F57A7000EE100A16
:100F10009FED101AB8EEC00A9FED0F2A20EE010ACD
:100F200080EE020A9FED0D1A9FED0D2A002130EE92
:100F3000010A30EE020ABDEEC00A10EE100AB1EB53
:100F4000D02F1CBF40F2FF707047302898BF302070
:100F5000704700BF00E0F94400007A440AD7233C00
:100F600000004042B0B5054600F00CFA04466D4260
:100F700000F008FA201AA842FAD1B0BD80B500F0FE
:100F8000FBFB00F07BF8FFF723FFFFF737FD00F0D6
:100F9000C7FA00F0FDF980BDB0B52DED028B40F22F
:100FA000720440F27005C2F20004C2F20005B4F906
:100FB000000040F27402B5F90010C2F20002404392
:100FC000B2F9002011FB010012FB020001F00FF842
:100FD00041EC100B00F0C0FE51EC100B00F0D6FFFE
:100FE000298808EE100A08B201EBE03181EAE0310D
:100FF00089B200EE101AB8EE400AB4EE480AF1EEDB
:1010000010FA11DA00EE100AB8EEC00A80EE080AF3
:1010100000F044FD9FED181A40F27C0020EE010A1A
:10102000C2F2000080ED000AB4F9000000EBE031EC
:1010300081EAE03189B200EE101AB8EE400AB4EE4F
:10104000480AF1EE10FA13DA80B200B200EE100A8C
:10105000B8EEC00A80EE080A00F020FD9FED061AE7
:1010600040F2840020EE010AC2F2000080ED000A86
:10107000BDEC028BB0BD00BFE12E654240F29A008C
:10108000C2F20000B0F900109FED281A00EE101A0D
:1010900040F2A401C2F20001B1F90010B8EEC00A9A
:1010A00080EE010A03EE101A40F2B001C2F2000114
:1010B000B8EEC33AB1F9001083EE013A05EE101A0A
:1010C000B8EEC55A85EE011A40F2A000C2F2000047
:1010D00090ED002A9FED144A9FED155A40F2AC01A5
:1010E00022EE042A20EE050AC2F2000132EE000AC6
:1010F00091ED002A80ED000A40F2B80022EE040AC9
:1011000023EE052AC2F2000030EE020A90ED002A1A
:1011100081ED000A22EE040A21EE051A30EE010AE2
:1011200080ED000A704700BF3333333F0000834235
:101130009A99993EB0B51425C4F20205286843F285
:10114000000420F01000C4F20104286020466B2146
:10115000FFF726FB20468021FFF722FB286840F09E
:10116000100028609620FFF7FDFE2868682120F017
:10117000100028602046FFF713FB20460721FFF7E9
:101180000FFB286840F0100028609620FFF7EAFE69
:1011900028686B2120F0100028602046FFF700FB34
:1011A00020460321FFF7FCFA286840F01000286071
:1011B0000A20FFF7D7FE28686A2120F01000286077
:1011C0002046FFF7EDFA20461021FFF7E9FA2868DC
:1011D00040F0100028600A20FFF7C4FE28686C2148
:1011E00020F0100028602046FFF7DAFA20460021A0
:1011F000FFF7D6FA286840F0100028600A20FFF7B1
:10120000B1FE2868192120F0100028602046FFF761
:10121000C7FA20460021FFF7C3FA286840F0100003
:1012200028600A20FFF79EFE28681A2120F010008F
:1012300028602046FFF7B4FA20460321FFF7B0FAF2
:10124000286840F0100028600A20FFF78BFE28680D
:101250001C2120F0100028602046FFF7A1FA20464C
:101260001021FFF79DFA286840F0100028600A203E
:10127000FFF778FE28681B2120F010002860204628
:10128000FFF78EFA20460821FFF78AFA286840F017
:10129000100028606420FFF765FEB0BDB0B51425CE
:1012A000C4F20205286843F2000420F01000C4F2E2
:1012B000010428602046F521FFF772FA204600213C
:1012C000FFF76EFA29686838B0FA80F041F0100133
:1012D00040092960B0BD000043F63000C4F20200AE
:1012E000016841F00401016040F60000C4F2020010
:1012F000016841F0A0510160416821F4C0414160A2
:10130000816841F020518160C16821F07051C16055
:101310007047000000F04AFB00F014FB00F042FBB5
:1013200000F0E6FA00F066FBFFF74EFB00F00CF869
:101330000446FFF723FE00BF00F006F8001BB0F5DF
:10134000FA6FF9D3F2E7000040F26C004EF2180198
:10135000C2F20000CEF200010068096848F6396266
:10136000C3F6E302A1FB02124FF47A714843A0EBEB
:10137000121040F2680100F57A70C2F200010860B4
:101380000868704740F26C00C2F2000000687047C5
:101390002DE9F04140F29C10C2F20000818840F239
:1013A000B910C2F20000007840F29406022840F220
:1013B000920040F2960540F29808C2F20000C2F294
:1013C0000006C2F20005C2F2000879D1B1F5E16F62
:1013D00028BF4FF4E16100EE101A40F2F401C2F2AE
:1013E000000191ED001A40F2F801C2F2000191ED06
:1013F000003A40F2FC01B8EE400AC2F2000130EEC1
:10140000412A91ED004A31EE000A30EE031A30EE27
:10141000430A30EE440A32EE035ABDEEC00A35EEFE
:10142000445A10EE102A32EE430ABDEEC55A31EE90
:10143000041A30EE040A15EE107ABDEEC11ABDEEA4
:10144000C00A40F24B4411EE103A10EE101AA742B7
:10145000078033802A80A8F800109CBF40F21A470A
:101460000780A3429CBF40F21A43338040F24B43B3
:101470009A429CBF40F21A422A8099429CBF40F295
:101480001A41A8F800100188B1F5FA6F84BF4FF433
:10149000FA6101803188B1F5FA6F84BF4FF4FA61C7
:1014A00031802988B1F5FA6F84BF4FF4FA61298041
:1014B000B8F80010B1F5FA6F09D94FF4FA6104E0F9
:1014C0004FF47A71018031802980A8F800100088DB
:1014D000FFF71AFD40F28C043188C2F2000420802C
:1014E0000846FFF711FD40F28E062988C2F2000679
:1014F00030800846FFF708FD40F29005B8F800106C
:10150000C2F2000528800846FFF7FEFC33882188D8
:101510002A88844618466346FFF74CF8BDE8F081F8
:1015200040F2AC00C2F2000090ED001A40F204104C
:10153000C2F2000090ED002A40F2E4009FED7E0A26
:10154000C2F2000031EE422A90ED004A22EE003A4B
:101550009FED7A1A34EE033AB4EE413AF1EE10FA06
:1015600080ED003A02DD80ED001A08E09FED741A6C
:10157000B4EE413AF1EE10FAB8BF80ED001A90EDEA
:10158000004A40F2F000C2F20000B6EE001A90ED00
:10159000005A22EE013A33EE044A32EE455AB2EED8
:1015A000043A25EE035A34EE055A9FED644A40F2A0
:1015B000F801B4EE445AC2F20001F1EE10FA81EDE6
:1015C000005A02DD81ED004A08E09FED5D4AB4EE6D
:1015D000445AF1EE10FAB8BF81ED004A40F2A00182
:1015E000C2F2000191ED004A40F20011C2F2000186
:1015F00091ED005A80ED002A40F2E000C2F20000B6
:1016000034EE452A90ED005A22EE004A9FED4B0A37
:1016100035EE044AB4EE404AF1EE10FA80ED004A8D
:1016200002DD80ED000A08E09FED450AB4EE404A75
:10163000F1EE10FAB8BF80ED000A22EE010A90ED3B
:10164000001A40F2EC00C2F2000090ED004A30EEC9
:10165000010A32EE441A21EE031A30EE011A9FED10
:10166000370A40F2F401B4EE401AC2F20001F1EE82
:1016700010FA81ED001A02DD81ED000A08E09FED0D
:10168000300AB4EE401AF1EE10FAB8BF81ED000A4C
:1016900080ED002A40F2B800C2F2000090ED000A8E
:1016A00040F20810C2F2000090ED001A40F2E8008B
:1016B0009FED242AC2F2000030EE410A90ED003A7C
:1016C00020EE022A9FED201A33EE022AB4EE412AC0
:1016D000F1EE10FA80ED002A02DD80ED001A08E03C
:1016E0009FED1A1AB4EE412AF1EE10FAB8BF80ED60
:1016F000001AB0EE081A90ED002A20EE010A30EE32
:10170000021A9FED110A40F2FC00B4EE401AC2F238
:101710000000F1EE10FA80ED001A02DD80ED000A03
:1017200070479FED0A0AB4EE401AF1EE10FAB8BF06
:1017300080ED000A704700BF0AD7A33B0000964324
:10174000000096C30AD7233C0000C8430000C8C36A
:1017500041EA400000210322034600BF9BB25940EA
:10176000013A4FEA1313F9D101F00F0141EA0010D9
:1017700080B27047704700002DE9F04740F214092D
:10178000C4F20209D9F8000043F2000420F010006E
:10179000C4F20104C9F800002046BB21FFF700F89D
:1017A00020460021FEF7FCFF054620460021FEF7FB
:1017B000F7FF40F2700840EA0520C2F20008A8F8DE
:1017C000000020460021FEF7EBFF054620460021E1
:1017D000FEF7E6FF40F2720A40EA0520C2F2000A74
:1017E000AAF8000020460021FEF7DAFF0546204651
:1017F0000021FEF7D5FF40F2740140EA0520C2F255
:101800000001088020460021FEF7CAFF0546204659
:101810000021FEF7C5FF40F2BA1140EA0520C2F2EE
:101820000001088020460021FEF7BAFF0546204649
:101830000021FEF7B5FF40F2A40640EA0520C2F2FF
:101840000006308020460021FEF7AAFF054620460C
:101850000021FEF7A5FF40F29A0740EA0520C2F2F8
:101860000007388020460021FEF79AFF05462046F3
:101870000021FEF795FFD9F8001040EA052241F05B
:101880001000C9F80000B8F80010BAF8003049425A
:10189000A8F80010594240F28803C2F20003AAF8E7
:1018A0000010514232881B6840F2B000C2F20000C2
:1018B0005242B3F5FA6F0180328018BFBDE8F0875D
:1018C00040F29C03C2F200031B883D88EB1A40F2F1
:1018D000A8053B8040F2B403C2F20005C2F2000347
:1018E0002D881B88521BC91A32800180BDE8F08701
:1018F0002DE9F04140F614084CF6CD4740F2E244A1
:101900000025C4F20208CCF6CC47002608E000BF50
:101910000420FFF727FB0136013CA5F101050DD09E
:10192000A6FB0701880800EB80004019F0D1D8F829
:10193000000080F4C040C8F80000E9E7FFF774F940
:10194000BDE8F08110B5FFF7A9FC002818BF10BD55
:1019500040F61404C4F202044FF47A70FFF702FB5D
:10196000206820F4C04020604FF49670FFF7FAFA28
:10197000206840F4C04020604FF49670FFF7F2FA00
:10198000206820F4C04020604FF49670FFF7EAFA18
:10199000206840F4C0402060FFF780FC0028DBD0C6
:1019A00010BD000080B5FFF7C5FB80BD80B5FFF717
:1019B000C7F9FEF739FFFEF7B7FEFFF78DFCFEF71C
:1019C0000FFD80BD10B540F200004EF20011C2F2D2
:1019D0000000C0F2F5510160FEF7FEFEFEF7E6FFE3
:1019E00000200024FEF7CAFF40F26C00C2F20000A3
:1019F000046010BD70B540F29C14C2F20004A088CF
:101A000040F24D41884238BF70BD40F61405C4F223
:101A1000020540F24C4600BF4FF47A70FFF7A2FA7D
:101A2000286820F4C04028606420FFF79BFA2868EB
:101A300040F4C04028606420FFF794FA286820F43E
:101A4000C04028606420FFF78DFA286840F4C04049
:101A500028606420FFF786FA286820F4C0402860D8
:101A60006420FFF77FFA286840F4C0402860A0880F
:101A7000B042D1D870BD4100080218BF04200A0E40
:101A800018BF40F001004FF07F4232EA010108BF69
:101A900040F00200012808BF0520704710B54FF044
:101AA0000E402DED028BB0EE408A18EE104A00EB8E
:101AB0004400B0F1506F4AD84FF0FC40B0EB440FF7
:101AC00022D2B0EEC80AF7EE000A30EEC00AF6EEF7
:101AD000000A60EE208A18EE900A00F037FA01EE54
:101AE000100A14F0004F1DBFDFED2D0A9FED2D0AE7
:101AF000B1EE411ADFED2C0A08BF9FED2C0AF8EE7B
:101B0000001A21EE218A05E0DFED290A68EE088A35
:101B1000B0EE600A9FED271ADFED271A30EE080AB3
:101B200048EE811A9FED251A08EEA11ADFED241A5E
:101B300048EE811A9FED231A08EEA11A68EE281AC2
:101B4000BDEC028B01EE810A30EE200A10BD4FF091
:101B5000E440B0EB440F0CD918EE100AFFF78BFFEE
:101B6000042808BF00F040F9B0EE480ABDEC028B33
:101B700010BD4FF07F40B0EB440F07D2B0EE480AE3
:101B8000BDEC028BBDE8104000F023B90120FEF748
:101B90007BFBBDEC028BBDE8104000F01DB90000DE
:101BA0000000C9BF22AAFDB90000C93F22AAFD3921
:101BB0000000000024FE1C3DC78AD83C1E67383D4B
:101BC0001B93993DAFAA2A3E00B510EE101A2DEDD9
:101BD000028B81B0524A6846B2EB410F2ED94FF0CA
:101BE000E640B0EB410F94BF00204FF0FF30009073
:101BF0000098B0EE408A00286ADB10F0010F4BD04D
:101C000068EE080A9FED471A9FED470A00EE810A29
:101C10009FED461A10F0020F00EE801AB7EE000A90
:101C200000EE810A02BF01B0BDEC028B00BD00BF17
:101C300001B0B1EE400ABDEC028B00BD3C4B21F07F
:101C40000042934241D911F0004FDFED3A0A20EEF5
:101C5000201ADFED390A19BF31EE601A71EE200A41
:101C600031EE201A71EE600ABDEEE01A11EE100A94
:101C70009FED321A00F0030000EEC10A9FED301A0A
:101C8000009000EEC10A9FED2F1A00EEC10A9FEDF1
:101C90002E1A00EEC10AABE728EE080A9FED2B1AB8
:101CA000DFED2B0A10F0020F40EE010A9FED291A1A
:101CB00000EE201A61EE000AB0EE480A08EE200A93
:101CC000B6D101B0BDEC028B00BD00F095F88FE7F6
:101CD00018EE100A4000B0F17F4F0DD218EE100A36
:101CE000FFF7C9FE042808BF00F07EF8B0EE480AEE
:101CF00001B0BDEC028B00BD09D10120FEF7C4FA92
:101D000001B0BDEC028B5DF804EB00F065B801B0EA
:101D1000B0EE480ABDEC028B5DF804EB00F059B858
:101D2000B61F927EB93AB2BACA9F2A3DDDFFFFBE06
:101D3000490E494683F9223F0000004B0000C93F8D
:101D400000A0FD390020A2331A61342C336D4CB948
:101D5000DA82083CA0AA2ABE00B52DED048BB0EEB5
:101D6000409AF0EE609A83B051EC190B00F0A4F9A0
:101D700041EC180B18EE100A18EE901A8DED008B3E
:101D8000002818BF0120084320F00040C0F17F6008
:101D900000F1E040C00F14D019EE101A19EE900AAD
:101DA0008DED009B002918BF0121084320F0004061
:101DB000C0F17F6000F1E040C00F04BF0120FEF7DA
:101DC00063FAB0EE480A03B0F0EE680ABDEC048B8B
:101DD00000BD30EE000A7047DFED020A80EEA00A77
:101DE00070470000000000009FED020A20EE000A8C
:101DF00070470000000000102DE9F0014FF07F4215
:101E0000B2EB410F9FBF4FF0FF310160BDE8F00121
:101E100070474FF0004242EA0123C1F3C752783ABB
:101E2000551112F01F0C434CCCF120067C44C1F339
:101E3000C752A2F178024FEA621204EB820254F810
:101E4000254008BFD2E9015612D0556804FA0CF4B7
:101E500025FA06F73C43976805FA0CF527FA06F8C9
:101E6000D26807FA0CFCF24045EA08054CEA020683
:101E7000A4FB034CA5FB0352A6FB03631D449D4238
:101E800034BF012600261319334416B1934202D9F8
:101E900003E0934201D2012200E00022624402F1F9
:101EA000200C9206DC0C42EA443200EE102A5B035E
:101EB000DFED210AF8EEC01A00EE103A4FEA9C1C42
:101EC00011F0004FB8EE400AC0F800C020EE201A12
:101ED00000EE105ADFED190AB8EE400A20EE200A93
:101EE00071EE810A70EE800A10EE902A02F500620F
:101EF0006FF30B0200EE902A70EEE11A31EEC11A78
:101F0000DFED101A30EE411A9FED0D0A20EE800A27
:101F100001EE210A9FED0C1A00EE810A04BFBDE814
:101F2000F0017047CCF180510160BDE8F001B1EEE5
:101F3000400A704744040000000000360000802C76
:101F400022AAFD29DB0FC92F0000C92F10B500EE12
:101F5000100A2DED028BB1EEC08A18EE100A20F0A7
:101F60000040C0F1FF40C00F0AD010EE100A20F070
:101F70000040C0F1FF40C00F04BF0120FEF784F90C
:101F800018EE100ABDEC028B10BD000021F00042DB
:101F900001F00043A2F16052B2F5801F28BFD2F1D8
:101FA0007F6C0BD95FEA001C43EAC20242EB50701F
:101FB00018BF704728BF20F001007047B2F5801F9E
:101FC000BCBF184670474FEA410C1CF5001F02D2F7
:101FD000084600F04AB970B500F020F8000000890A
:101FE000FFF7F6BF4FF00040A0F58000704710F0FB
:101FF000004248BF4042B0FA80F310FA03F10AD021
:10200000C3F11D0303F5806302EB03524FEA415015
:1020100002EBD12170474FF0000070470EF1020E25
:102020002EF0030E5EF8046B364205D4012A43EB12
:10203000030515F5001F12D8012841EB010C1CF512
:10204000001F0CD80ED14FEAD17C0CEB4C0C0CF1DC
:10205000020C15F5001F08BF4CEBD37C04E04FF0D9
:10206000080C01E04FEAD37C0CEB4C0526FA05F690
:1020700006F00706B6F1040C06D20EEB860CBDE89E
:1020800070404CF0010C6047DFE80CF0090B0202D5
:102090004FF00041A1F500214FF0000070BD19463E
:1020A0001046012851EB010418BFD4F5001484BF79
:1020B000002001F0004170BD2DE9F04101F5801CC8
:1020C000BCF5001FC0F2A9804FEA115C21EA0C5157
:1020D00041F480110CF1FD0C5FEA5C0C0CF5C07C46
:1020E00001D340004941890241EA905187022EA460
:1020F0008E0EA45D0A0C04FB04F602FB06F6C6F184
:102100004046A4FB0662F60D46EA422606FB06F4AC
:10211000A4FB01235242C3F1404338BF5B1EA6FB20
:1021200002420024E6FB0324D20B42EA4446A6FB0B
:102130000623A1FB02E2A3FB07E4E3FB6142644246
:10214000C2F1404E38BFAEF1010EA6FB04234FF0A2
:102150000002E6FB0E32A2FB03463400E2FB62649F
:10216000A1FB06E6A4FB07E8E4FB61687642C8F140
:10217000405838BFA8F10108A2FB06E4A3FB08E51C
:10218000E2FB6854A1FB05E6A7FB04E8E1FB6486DB
:1021900018F1200556F10006A80940EA8660B10949
:1021A000A8F11B0808F03F08B8F10A0F1CD901EB91
:1021B0000C51BDE8F08100BFFCF5EEE8E2DDD8D3BC
:1021C000CFCBC7C3C0BDB9B6B4B1AEACA9A7A5A3A8
:1021D000A19F9D9B9A9896959392908F8D8C8B89B9
:1021E0008887868584838281A0FB006800FB01F2DA
:1021F00008EB4208B8EB872807D5341858EB0104E0
:10220000D5D5401C51F10001D1E7341A78EB010417
:10221000CDD4401E71F10001C9E75FEA4C0C5FEAC2
:102220009C5C0DD105D301F000414FF00000BDE8EA
:10223000F081BDE8F04170B5FFF7F0FE6DDBFFBE49
:10224000BDE8F04101494FF0000070470000F87F01
:10225000F1EE100A4FF6FF71C0F2C03120EA010022
:1022600040F04070E1EE100A7047FF2141EAD05083
:10227000C0057047000000006E83F9A22915444E86
:10228000D15727FCC0DD34F5999562DB4190433C82
:10229000AB6351FEB42200080000002004000000DF
:1022A000D4010008B822000808000020B807000088
:0822B000F00100080024F40015
:0400000508000239B4
:00000001FF
